{
  "_format": "hh-sol-artifact-1",
  "contractName": "Groth16Verifier",
  "sourceName": "contracts/Groth16Verifier.sol",
  "abi": [
    {
      "inputs": [
        {
          "internalType": "uint256[2]",
          "name": "_pA",
          "type": "uint256[2]"
        },
        {
          "internalType": "uint256[2][2]",
          "name": "_pB",
          "type": "uint256[2][2]"
        },
        {
          "internalType": "uint256[2]",
          "name": "_pC",
          "type": "uint256[2]"
        },
        {
          "internalType": "uint256[4]",
          "name": "_pubSignals",
          "type": "uint256[4]"
        }
      ],
      "name": "verifyProof",
      "outputs": [
        {
          "internalType": "bool",
          "name": "",
          "type": "bool"
        }
      ],
      "stateMutability": "view",
      "type": "function"
    }
  ],
  "bytecode": "0x608060405234801561001057600080fd5b5061067a806100206000396000f3fe608060405234801561001057600080fd5b506004361061002b5760003560e01c80635fe8c13b14610030575b600080fd5b61004361003e3660046105ea565b610057565b604051901515815260200160405180910390f35b600061056a565b7f30644e72e131a029b85045b68181585d2833e84879b9709143e1f593f0000001811061008f576000805260206000f35b50565b600060405183815284602082015285604082015260408160608360076107d05a03fa9150816100c5576000805260206000f35b825160408201526020830151606082015260408360808360066107d05a03fa915050806100f6576000805260206000f35b5050505050565b7f2bb986d7034babed1a27b4fb1fe655438cc5e63dba04253080f2ff476db5e37b85527f0203a0f5d185a9f557b5c815656cd32c2a4442265c6f19348dfd9f465efa873360208601526000608086018661019a87357f16a8ef774abf1c11bd523ba1b57bf94217fb285f8e89bb8eb3cb60517720b1657f23591de8efb012312c677a6d198a0dec1f5f6d7da06be9fcf75267ac8cd594eb84610092565b6101ea60208801357f25380a8139dc9873f0dee46644afe040e4d08a27c48a2c70cddf5226a5814f5a7f0931bb9097a1774087268177f195c37802845e4a54228d191528cef412d603a284610092565b61023a60408801357f0a5c687a3a0ae86ad7b87fb3250bf8705d998f1c5437d7ebbde25325ab9fa4a97f1a8c5c7539942cfd93de953231b3644f59124be3afa6b505031554909b0e6a7084610092565b61028a60608801357f2cf0a7320f4f6b2d71d1370acf738dfe43bef4c444dec9b89dc90c2a4c1a79c67f2f104eec32fde0ee565cc2a0f73a3bc4e53c15089cd7e9d73f05f75aaa77e0e384610092565b50823581527f30644e72e131a029b85045b68181585d97816a916871ca8d3c208c16d87cfd4760208401357f30644e72e131a029b85045b68181585d97816a916871ca8d3c208c16d87cfd4703066020820152833560408201526020840135606082015260408401356080820152606084013560a08201527f08bd11a7b42e992ce7a938410084438970f3b9016b43510daac3305be2bbb7b860c08201527f2ddf56c7b527e5e851f40c81cebe27e4987ead32ece7e4569fbba829ee4e21dc60e08201527f150f6bed23921ba9d78982c46afb43db26cf647088f1fac616104df84bcc6c5b6101008201527f261ef7f4a29efcdda7692f76f7c72a1fb28767fd1ced5d6e569f699b379b705b6101208201527f1b697142f3801c9bf18a8ff9ce50526b13ddb6d80225a8a92a76b9e284a076956101408201527f1d4f3eb29690422fc805d80b43d0cd977b43bdc660865c5647e03eadb8c341da610160820152600087015161018082015260206000018701516101a08201527f198e9393920d483a7260bfb731fb5d25f1aa493335a9e71297e485b7aef312c26101c08201527f1800deef121f1e76426a00665e5c4479674322d4f75edadd46debd5cd992f6ed6101e08201527f090689d0585ff075ec9e99ad690c3395bc4b313370b38ef355acdadcd122975b6102008201527f12c85ea5db8c6deb4aab71808dcb408fe3d1e7690c43d37b4ce6cc0166fa7daa610220820152843561024082015260208501356102608201527f1cabacdea0b5b31ca476d8b65e5e54ac8a94c4c3cef079125b483f16b6b651f96102808201527f171bd00ae8cb676297b1d871467922ea8d64c47ce93555ca6b1c2070b828ffa96102a08201527f0dceab6fc95b57146c3a6076c6cbb223eb9adfe5d30974e1a67d41fbdafb6c916102c08201527f027d9cf782ab340b839ea6a63bea72fc33c28d650ab991b8dbe9225696208eb76102e08201526020816103008360086107d05a03fa9051169695505050505050565b6040516103808101604052610582600084013561005e565b61058f602084013561005e565b61059c604084013561005e565b6105a9606084013561005e565b6105b6818486888a6100fd565b90508060005260206000f35b80604081018310156105d357600080fd5b92915050565b80608081018310156105d357600080fd5b600080600080610180858703121561060157600080fd5b61060b86866105c2565b935061061a86604087016105d9565b92506106298660c087016105c2565b91506106398661010087016105d9565b90509295919450925056fea26469706673582212207e594ccd03c6a9ef8833ccef07b8181a8dac08e32bbd9809c0b2fbc665b5ecc964736f6c63430008180033",
  "linkReferences": {},
  "deployedLinkReferences": {}
}