{
  "_format": "hh-sol-artifact-1",
  "contractName": "SolvencyProofRegistry",
  "sourceName": "contracts/SolvencyProofRegistry.sol",
  "abi": [
    {
      "inputs": [
        {
          "internalType": "address",
          "name": "_verifier",
          "type": "address"
        }
      ],
      "stateMutability": "nonpayable",
      "type": "constructor"
    },
    {
      "anonymous": false,
      "inputs": [
        {
          "indexed": true,
          "internalType": "bytes32",
          "name": "epochId",
          "type": "bytes32"
        },
        {
          "indexed": false,
          "internalType": "bytes32",
          "name": "liabilitiesRoot",
          "type": "bytes32"
        },
        {
          "indexed": false,
          "internalType": "uint256",
          "name": "reservesTotal",
          "type": "uint256"
        },
        {
          "indexed": false,
          "internalType": "uint256",
          "name": "timestamp",
          "type": "uint256"
        },
        {
          "indexed": true,
          "internalType": "address",
          "name": "submitter",
          "type": "address"
        }
      ],
      "name": "SolvencyProved",
      "type": "event"
    },
    {
      "anonymous": false,
      "inputs": [
        {
          "indexed": true,
          "internalType": "address",
          "name": "oldVerifier",
          "type": "address"
        },
        {
          "indexed": true,
          "internalType": "address",
          "name": "newVerifier",
          "type": "address"
        }
      ],
      "name": "VerifierUpdated",
      "type": "event"
    },
    {
      "inputs": [
        {
          "internalType": "uint256",
          "name": "",
          "type": "uint256"
        }
      ],
      "name": "epochIds",
      "outputs": [
        {
          "internalType": "bytes32",
          "name": "",
          "type": "bytes32"
        }
      ],
      "stateMutability": "view",
      "type": "function"
    },
    {
      "inputs": [],
      "name": "getEpochCount",
      "outputs": [
        {
          "internalType": "uint256",
          "name": "",
          "type": "uint256"
        }
      ],
      "stateMutability": "view",
      "type": "function"
    },
    {
      "inputs": [],
      "name": "getLatestEpoch",
      "outputs": [
        {
          "internalType": "bytes32",
          "name": "",
          "type": "bytes32"
        }
      ],
      "stateMutability": "view",
      "type": "function"
    },
    {
      "inputs": [
        {
          "internalType": "bytes32",
          "name": "epochId",
          "type": "bytes32"
        }
      ],
      "name": "getProof",
      "outputs": [
        {
          "components": [
            {
              "internalType": "bytes32",
              "name": "epochId",
              "type": "bytes32"
            },
            {
              "internalType": "bytes32",
              "name": "liabilitiesRoot",
              "type": "bytes32"
            },
            {
              "internalType": "uint256",
              "name": "reservesTotal",
              "type": "uint256"
            },
            {
              "internalType": "uint256",
              "name": "timestamp",
              "type": "uint256"
            },
            {
              "internalType": "address",
              "name": "submitter",
              "type": "address"
            },
            {
              "internalType": "bool",
              "name": "verified",
              "type": "bool"
            }
          ],
          "internalType": "struct SolvencyProofRegistry.SolvencyProof",
          "name": "",
          "type": "tuple"
        }
      ],
      "stateMutability": "view",
      "type": "function"
    },
    {
      "inputs": [
        {
          "internalType": "bytes32",
          "name": "epochId",
          "type": "bytes32"
        }
      ],
      "name": "isEpochVerified",
      "outputs": [
        {
          "internalType": "bool",
          "name": "",
          "type": "bool"
        }
      ],
      "stateMutability": "view",
      "type": "function"
    },
    {
      "inputs": [],
      "name": "owner",
      "outputs": [
        {
          "internalType": "address",
          "name": "",
          "type": "address"
        }
      ],
      "stateMutability": "view",
      "type": "function"
    },
    {
      "inputs": [
        {
          "internalType": "bytes32",
          "name": "",
          "type": "bytes32"
        }
      ],
      "name": "proofs",
      "outputs": [
        {
          "internalType": "bytes32",
          "name": "epochId",
          "type": "bytes32"
        },
        {
          "internalType": "bytes32",
          "name": "liabilitiesRoot",
          "type": "bytes32"
        },
        {
          "internalType": "uint256",
          "name": "reservesTotal",
          "type": "uint256"
        },
        {
          "internalType": "uint256",
          "name": "timestamp",
          "type": "uint256"
        },
        {
          "internalType": "address",
          "name": "submitter",
          "type": "address"
        },
        {
          "internalType": "bool",
          "name": "verified",
          "type": "bool"
        }
      ],
      "stateMutability": "view",
      "type": "function"
    },
    {
      "inputs": [
        {
          "internalType": "address",
          "name": "_verifier",
          "type": "address"
        }
      ],
      "name": "setVerifier",
      "outputs": [],
      "stateMutability": "nonpayable",
      "type": "function"
    },
    {
      "inputs": [
        {
          "internalType": "bytes32",
          "name": "epochId",
          "type": "bytes32"
        },
        {
          "internalType": "bytes32",
          "name": "liabilitiesRoot",
          "type": "bytes32"
        },
        {
          "internalType": "uint256",
          "name": "reservesTotal",
          "type": "uint256"
        },
        {
          "internalType": "uint256[2]",
          "name": "_pA",
          "type": "uint256[2]"
        },
        {
          "internalType": "uint256[2][2]",
          "name": "_pB",
          "type": "uint256[2][2]"
        },
        {
          "internalType": "uint256[2]",
          "name": "_pC",
          "type": "uint256[2]"
        }
      ],
      "name": "submitProof",
      "outputs": [],
      "stateMutability": "nonpayable",
      "type": "function"
    },
    {
      "inputs": [],
      "name": "verifier",
      "outputs": [
        {
          "internalType": "contract IGroth16Verifier",
          "name": "",
          "type": "address"
        }
      ],
      "stateMutability": "view",
      "type": "function"
    }
  ],
  "bytecode": "0x608060405234801561001057600080fd5b5060405161091238038061091283398101604081905261002f91610062565b60018054336001600160a01b031991821617909155600080549091166001600160a01b0392909216919091179055610092565b60006020828403121561007457600080fd5b81516001600160a01b038116811461008b57600080fd5b9392505050565b610871806100a16000396000f3fe608060405234801561001057600080fd5b506004361061009e5760003560e01c8063444d95b011610066578063444d95b0146102345780635437988d146102be5780637e26ce41146102d15780638da5cb5b146102e4578063a3d74f06146102f757600080fd5b80631b80bb3a146100a357806322f2a78e146101a55780632387d32c146101ba5780632b7ac3f3146101cc5780633dbd35dd146101f7575b600080fd5b61014a6100b13660046106aa565b6040805160c081018252600080825260208201819052918101829052606081018290526080810182905260a081019190915250600090815260026020818152604092839020835160c08101855281548152600182015492810192909252918201549281019290925260038101546060830152600401546001600160a01b0381166080830152600160a01b900460ff16151560a082015290565b60405161019c9190815181526020808301519082015260408083015190820152606080830151908201526080808301516001600160a01b03169082015260a09182015115159181019190915260c00190565b60405180910390f35b6101b86101b33660046106da565b6102ff565b005b6003545b60405190815260200161019c565b6000546101df906001600160a01b031681565b6040516001600160a01b03909116815260200161019c565b6102246102053660046106aa565b600090815260026020526040902060040154600160a01b900460ff1690565b604051901515815260200161019c565b6102866102423660046106aa565b60026020819052600091825260409091208054600182015492820154600383015460049093015491939290916001600160a01b03811690600160a01b900460ff1686565b6040805196875260208701959095529385019290925260608401526001600160a01b03166080830152151560a082015260c00161019c565b6101b86102cc366004610744565b610585565b6101be6102df3660046106aa565b61061b565b6001546101df906001600160a01b031681565b6101be61063c565b600086815260026020526040902060030154156103635760405162461bcd60e51b815260206004820152601760248201527f45706f636820616c7265616479207375626d697474656400000000000000000060448201526064015b60405180910390fd5b60408051606081018252868152602081018690528082018890526000805492516308a3cff560e11b8152919290916001600160a01b03909116906311479fea906103b7908890889088908890600401610774565b602060405180830381865afa1580156103d4573d6000803e3d6000fd5b505050506040513d601f19601f820116820180604052508101906103f891906107e2565b9050806104375760405162461bcd60e51b815260206004820152600d60248201526c24b73b30b634b210383937b7b360991b604482015260640161035a565b6040518060c00160405280898152602001888152602001878152602001428152602001336001600160a01b0316815260200160011515815250600260008a81526020019081526020016000206000820151816000015560208201518160010155604082015181600201556060820151816003015560808201518160040160006101000a8154816001600160a01b0302191690836001600160a01b0316021790555060a08201518160040160146101000a81548160ff0219169083151502179055509050506003889080600181540180825580915050600190039060005260206000200160009091909190915055336001600160a01b0316887fca5e1b523279296bdf0a46d00c351d2fda447ad4dc17411e8d3e531e936f4329898942604051610573939291909283526020830191909152604082015260600190565b60405180910390a35050505050505050565b6001546001600160a01b031633146105cb5760405162461bcd60e51b81526020600482015260096024820152682737ba1037bbb732b960b91b604482015260640161035a565b600080546001600160a01b038381166001600160a01b0319831681178455604051919092169283917f0243549a92b2412f7a3caf7a2e56d65b8821b91345363faa5f57195384065fcc9190a35050565b6003818154811061062b57600080fd5b600091825260209091200154905081565b60035460009061067a5760405162461bcd60e51b81526020600482015260096024820152684e6f2065706f63687360b81b604482015260640161035a565b6003805461068a90600190610804565b8154811061069a5761069a610825565b9060005260206000200154905090565b6000602082840312156106bc57600080fd5b5035919050565b80604081018310156106d457600080fd5b92915050565b60008060008060008061016087890312156106f457600080fd5b86359550602087013594506040870135935061071388606089016106c3565b925061012087018881111561072757600080fd5b60a08801925061073789826106c3565b9150509295509295509295565b60006020828403121561075657600080fd5b81356001600160a01b038116811461076d57600080fd5b9392505050565b61016081016040808784378083018660005b60028110156107a357838284379183019190830190600101610786565b505050808560c08501375061010082018360005b60038110156107d65781518352602092830192909101906001016107b7565b50505095945050505050565b6000602082840312156107f457600080fd5b8151801515811461076d57600080fd5b818103818111156106d457634e487b7160e01b600052601160045260246000fd5b634e487b7160e01b600052603260045260246000fdfea264697066735822122063233ebc70806df0fc4afc2b8949f7b2f4905a372f3c07f0b8df00976208287264736f6c63430008180033",
  "linkReferences": {},
  "deployedLinkReferences": {}
}