{"contracts/Groth16Verifier.sol":{"Groth16Verifier":{"abi":[{"inputs":[{"internalType":"uint256[2]","name":"_pA","type":"uint256[2]"},{"internalType":"uint256[2][2]","name":"_pB","type":"uint256[2][2]"},{"internalType":"uint256[2]","name":"_pC","type":"uint256[2]"},{"internalType":"uint256[4]","name":"_pubSignals","type":"uint256[4]"}],"name":"verifyProof","outputs":[{"internalType":"bool","name":"","type":"bool"}],"stateMutability":"view","type":"function"}],"evm":{"bytecode":{"linkReferences":{},"object":"608060405234801561001057600080fd5b5061067a806100206000396000f3fe608060405234801561001057600080fd5b506004361061002b5760003560e01c80635fe8c13b14610030575b600080fd5b61004361003e3660046105ea565b610057565b604051901515815260200160405180910390f35b600061056a565b7f30644e72e131a029b85045b68181585d2833e84879b9709143e1f593f0000001811061008f576000805260206000f35b50565b600060405183815284602082015285604082015260408160608360076107d05a03fa9150816100c5576000805260206000f35b825160408201526020830151606082015260408360808360066107d05a03fa915050806100f6576000805260206000f35b5050505050565b7f2bb986d7034babed1a27b4fb1fe655438cc5e63dba04253080f2ff476db5e37b85527f0203a0f5d185a9f557b5c815656cd32c2a4442265c6f19348dfd9f465efa873360208601526000608086018661019a87357f16a8ef774abf1c11bd523ba1b57bf94217fb285f8e89bb8eb3cb60517720b1657f23591de8efb012312c677a6d198a0dec1f5f6d7da06be9fcf75267ac8cd594eb84610092565b6101ea60208801357f25380a8139dc9873f0dee46644afe040e4d08a27c48a2c70cddf5226a5814f5a7f0931bb9097a1774087268177f195c37802845e4a54228d191528cef412d603a284610092565b61023a60408801357f0a5c687a3a0ae86ad7b87fb3250bf8705d998f1c5437d7ebbde25325ab9fa4a97f1a8c5c7539942cfd93de953231b3644f59124be3afa6b505031554909b0e6a7084610092565b61028a60608801357f2cf0a7320f4f6b2d71d1370acf738dfe43bef4c444dec9b89dc90c2a4c1a79c67f2f104eec32fde0ee565cc2a0f73a3bc4e53c15089cd7e9d73f05f75aaa77e0e384610092565b50823581527f30644e72e131a029b85045b68181585d97816a916871ca8d3c208c16d87cfd4760208401357f30644e72e131a029b85045b68181585d97816a916871ca8d3c208c16d87cfd4703066020820152833560408201526020840135606082015260408401356080820152606084013560a08201527f08bd11a7b42e992ce7a938410084438970f3b9016b43510daac3305be2bbb7b860c08201527f2ddf56c7b527e5e851f40c81cebe27e4987ead32ece7e4569fbba829ee4e21dc60e08201527f150f6bed23921ba9d78982c46afb43db26cf647088f1fac616104df84bcc6c5b6101008201527f261ef7f4a29efcdda7692f76f7c72a1fb28767fd1ced5d6e569f699b379b705b6101208201527f1b697142f3801c9bf18a8ff9ce50526b13ddb6d80225a8a92a76b9e284a076956101408201527f1d4f3eb29690422fc805d80b43d0cd977b43bdc660865c5647e03eadb8c341da610160820152600087015161018082015260206000018701516101a08201527f198e9393920d483a7260bfb731fb5d25f1aa493335a9e71297e485b7aef312c26101c08201527f1800deef121f1e76426a00665e5c4479674322d4f75edadd46debd5cd992f6ed6101e08201527f090689d0585ff075ec9e99ad690c3395bc4b313370b38ef355acdadcd122975b6102008201527f12c85ea5db8c6deb4aab71808dcb408fe3d1e7690c43d37b4ce6cc0166fa7daa610220820152843561024082015260208501356102608201527f1cabacdea0b5b31ca476d8b65e5e54ac8a94c4c3cef079125b483f16b6b651f96102808201527f171bd00ae8cb676297b1d871467922ea8d64c47ce93555ca6b1c2070b828ffa96102a08201527f0dceab6fc95b57146c3a6076c6cbb223eb9adfe5d30974e1a67d41fbdafb6c916102c08201527f027d9cf782ab340b839ea6a63bea72fc33c28d650ab991b8dbe9225696208eb76102e08201526020816103008360086107d05a03fa9051169695505050505050565b6040516103808101604052610582600084013561005e565b61058f602084013561005e565b61059c604084013561005e565b6105a9606084013561005e565b6105b6818486888a6100fd565b90508060005260206000f35b80604081018310156105d357600080fd5b92915050565b80608081018310156105d357600080fd5b600080600080610180858703121561060157600080fd5b61060b86866105c2565b935061061a86604087016105d9565b92506106298660c087016105c2565b91506106398661010087016105d9565b90509295919450925056fea26469706673582212207e594ccd03c6a9ef8833ccef07b8181a8dac08e32bbd9809c0b2fbc665b5ecc964736f6c63430008180033","opcodes":"PUSH1 0x80 PUSH1 0x40 MSTORE CALLVALUE DUP1 ISZERO PUSH2 0x10 JUMPI PUSH1 0x0 DUP1 REVERT JUMPDEST POP PUSH2 0x67A DUP1 PUSH2 0x20 PUSH1 0x0 CODECOPY PUSH1 0x0 RETURN INVALID PUSH1 0x80 PUSH1 0x40 MSTORE CALLVALUE DUP1 ISZERO PUSH2 0x10 JUMPI PUSH1 0x0 DUP1 REVERT JUMPDEST POP PUSH1 0x4 CALLDATASIZE LT PUSH2 0x2B JUMPI PUSH1 0x0 CALLDATALOAD PUSH1 0xE0 SHR DUP1 PUSH4 0x5FE8C13B EQ PUSH2 0x30 JUMPI JUMPDEST PUSH1 0x0 DUP1 REVERT JUMPDEST PUSH2 0x43 PUSH2 0x3E CALLDATASIZE PUSH1 0x4 PUSH2 0x5EA JUMP JUMPDEST PUSH2 0x57 JUMP JUMPDEST PUSH1 0x40 MLOAD SWAP1 ISZERO ISZERO DUP2 MSTORE PUSH1 0x20 ADD PUSH1 0x40 MLOAD DUP1 SWAP2 SUB SWAP1 RETURN JUMPDEST PUSH1 0x0 PUSH2 0x56A JUMP JUMPDEST PUSH32 0x30644E72E131A029B85045B68181585D2833E84879B9709143E1F593F0000001 DUP2 LT PUSH2 0x8F JUMPI PUSH1 0x0 DUP1 MSTORE PUSH1 0x20 PUSH1 0x0 RETURN JUMPDEST POP JUMP JUMPDEST PUSH1 0x0 PUSH1 0x40 MLOAD DUP4 DUP2 MSTORE DUP5 PUSH1 0x20 DUP3 ADD MSTORE DUP6 PUSH1 0x40 DUP3 ADD MSTORE PUSH1 0x40 DUP2 PUSH1 0x60 DUP4 PUSH1 0x7 PUSH2 0x7D0 GAS SUB STATICCALL SWAP2 POP DUP2 PUSH2 0xC5 JUMPI PUSH1 0x0 DUP1 MSTORE PUSH1 0x20 PUSH1 0x0 RETURN JUMPDEST DUP3 MLOAD PUSH1 0x40 DUP3 ADD MSTORE PUSH1 0x20 DUP4 ADD MLOAD PUSH1 0x60 DUP3 ADD MSTORE PUSH1 0x40 DUP4 PUSH1 0x80 DUP4 PUSH1 0x6 PUSH2 0x7D0 GAS SUB STATICCALL SWAP2 POP POP DUP1 PUSH2 0xF6 JUMPI PUSH1 0x0 DUP1 MSTORE PUSH1 0x20 PUSH1 0x0 RETURN JUMPDEST POP POP POP POP POP JUMP JUMPDEST PUSH32 0x2BB986D7034BABED1A27B4FB1FE655438CC5E63DBA04253080F2FF476DB5E37B DUP6 MSTORE PUSH32 0x203A0F5D185A9F557B5C815656CD32C2A4442265C6F19348DFD9F465EFA8733 PUSH1 0x20 DUP7 ADD MSTORE PUSH1 0x0 PUSH1 0x80 DUP7 ADD DUP7 PUSH2 0x19A DUP8 CALLDATALOAD PUSH32 0x16A8EF774ABF1C11BD523BA1B57BF94217FB285F8E89BB8EB3CB60517720B165 PUSH32 0x23591DE8EFB012312C677A6D198A0DEC1F5F6D7DA06BE9FCF75267AC8CD594EB DUP5 PUSH2 0x92 JUMP JUMPDEST PUSH2 0x1EA PUSH1 0x20 DUP9 ADD CALLDATALOAD PUSH32 0x25380A8139DC9873F0DEE46644AFE040E4D08A27C48A2C70CDDF5226A5814F5A PUSH32 0x931BB9097A1774087268177F195C37802845E4A54228D191528CEF412D603A2 DUP5 PUSH2 0x92 JUMP JUMPDEST PUSH2 0x23A PUSH1 0x40 DUP9 ADD CALLDATALOAD PUSH32 0xA5C687A3A0AE86AD7B87FB3250BF8705D998F1C5437D7EBBDE25325AB9FA4A9 PUSH32 0x1A8C5C7539942CFD93DE953231B3644F59124BE3AFA6B505031554909B0E6A70 DUP5 PUSH2 0x92 JUMP JUMPDEST PUSH2 0x28A PUSH1 0x60 DUP9 ADD CALLDATALOAD PUSH32 0x2CF0A7320F4F6B2D71D1370ACF738DFE43BEF4C444DEC9B89DC90C2A4C1A79C6 PUSH32 0x2F104EEC32FDE0EE565CC2A0F73A3BC4E53C15089CD7E9D73F05F75AAA77E0E3 DUP5 PUSH2 0x92 JUMP JUMPDEST POP DUP3 CALLDATALOAD DUP2 MSTORE PUSH32 0x30644E72E131A029B85045B68181585D97816A916871CA8D3C208C16D87CFD47 PUSH1 0x20 DUP5 ADD CALLDATALOAD PUSH32 0x30644E72E131A029B85045B68181585D97816A916871CA8D3C208C16D87CFD47 SUB MOD PUSH1 0x20 DUP3 ADD MSTORE DUP4 CALLDATALOAD PUSH1 0x40 DUP3 ADD MSTORE PUSH1 0x20 DUP5 ADD CALLDATALOAD PUSH1 0x60 DUP3 ADD MSTORE PUSH1 0x40 DUP5 ADD CALLDATALOAD PUSH1 0x80 DUP3 ADD MSTORE PUSH1 0x60 DUP5 ADD CALLDATALOAD PUSH1 0xA0 DUP3 ADD MSTORE PUSH32 0x8BD11A7B42E992CE7A938410084438970F3B9016B43510DAAC3305BE2BBB7B8 PUSH1 0xC0 DUP3 ADD MSTORE PUSH32 0x2DDF56C7B527E5E851F40C81CEBE27E4987EAD32ECE7E4569FBBA829EE4E21DC PUSH1 0xE0 DUP3 ADD MSTORE PUSH32 0x150F6BED23921BA9D78982C46AFB43DB26CF647088F1FAC616104DF84BCC6C5B PUSH2 0x100 DUP3 ADD MSTORE PUSH32 0x261EF7F4A29EFCDDA7692F76F7C72A1FB28767FD1CED5D6E569F699B379B705B PUSH2 0x120 DUP3 ADD MSTORE PUSH32 0x1B697142F3801C9BF18A8FF9CE50526B13DDB6D80225A8A92A76B9E284A07695 PUSH2 0x140 DUP3 ADD MSTORE PUSH32 0x1D4F3EB29690422FC805D80B43D0CD977B43BDC660865C5647E03EADB8C341DA PUSH2 0x160 DUP3 ADD MSTORE PUSH1 0x0 DUP8 ADD MLOAD PUSH2 0x180 DUP3 ADD MSTORE PUSH1 0x20 PUSH1 0x0 ADD DUP8 ADD MLOAD PUSH2 0x1A0 DUP3 ADD MSTORE PUSH32 0x198E9393920D483A7260BFB731FB5D25F1AA493335A9E71297E485B7AEF312C2 PUSH2 0x1C0 DUP3 ADD MSTORE PUSH32 0x1800DEEF121F1E76426A00665E5C4479674322D4F75EDADD46DEBD5CD992F6ED PUSH2 0x1E0 DUP3 ADD MSTORE PUSH32 0x90689D0585FF075EC9E99AD690C3395BC4B313370B38EF355ACDADCD122975B PUSH2 0x200 DUP3 ADD MSTORE PUSH32 0x12C85EA5DB8C6DEB4AAB71808DCB408FE3D1E7690C43D37B4CE6CC0166FA7DAA PUSH2 0x220 DUP3 ADD MSTORE DUP5 CALLDATALOAD PUSH2 0x240 DUP3 ADD MSTORE PUSH1 0x20 DUP6 ADD CALLDATALOAD PUSH2 0x260 DUP3 ADD MSTORE PUSH32 0x1CABACDEA0B5B31CA476D8B65E5E54AC8A94C4C3CEF079125B483F16B6B651F9 PUSH2 0x280 DUP3 ADD MSTORE PUSH32 0x171BD00AE8CB676297B1D871467922EA8D64C47CE93555CA6B1C2070B828FFA9 PUSH2 0x2A0 DUP3 ADD MSTORE PUSH32 0xDCEAB6FC95B57146C3A6076C6CBB223EB9ADFE5D30974E1A67D41FBDAFB6C91 PUSH2 0x2C0 DUP3 ADD MSTORE PUSH32 0x27D9CF782AB340B839EA6A63BEA72FC33C28D650AB991B8DBE9225696208EB7 PUSH2 0x2E0 DUP3 ADD MSTORE PUSH1 0x20 DUP2 PUSH2 0x300 DUP4 PUSH1 0x8 PUSH2 0x7D0 GAS SUB STATICCALL SWAP1 MLOAD AND SWAP7 SWAP6 POP POP POP POP POP POP JUMP JUMPDEST PUSH1 0x40 MLOAD PUSH2 0x380 DUP2 ADD PUSH1 0x40 MSTORE PUSH2 0x582 PUSH1 0x0 DUP5 ADD CALLDATALOAD PUSH2 0x5E JUMP JUMPDEST PUSH2 0x58F PUSH1 0x20 DUP5 ADD CALLDATALOAD PUSH2 0x5E JUMP JUMPDEST PUSH2 0x59C PUSH1 0x40 DUP5 ADD CALLDATALOAD PUSH2 0x5E JUMP JUMPDEST PUSH2 0x5A9 PUSH1 0x60 DUP5 ADD CALLDATALOAD PUSH2 0x5E JUMP JUMPDEST PUSH2 0x5B6 DUP2 DUP5 DUP7 DUP9 DUP11 PUSH2 0xFD JUMP JUMPDEST SWAP1 POP DUP1 PUSH1 0x0 MSTORE PUSH1 0x20 PUSH1 0x0 RETURN JUMPDEST DUP1 PUSH1 0x40 DUP2 ADD DUP4 LT ISZERO PUSH2 0x5D3 JUMPI PUSH1 0x0 DUP1 REVERT JUMPDEST SWAP3 SWAP2 POP POP JUMP JUMPDEST DUP1 PUSH1 0x80 DUP2 ADD DUP4 LT ISZERO PUSH2 0x5D3 JUMPI PUSH1 0x0 DUP1 REVERT JUMPDEST PUSH1 0x0 DUP1 PUSH1 0x0 DUP1 PUSH2 0x180 DUP6 DUP8 SUB SLT ISZERO PUSH2 0x601 JUMPI PUSH1 0x0 DUP1 REVERT JUMPDEST PUSH2 0x60B DUP7 DUP7 PUSH2 0x5C2 JUMP JUMPDEST SWAP4 POP PUSH2 0x61A DUP7 PUSH1 0x40 DUP8 ADD PUSH2 0x5D9 JUMP JUMPDEST SWAP3 POP PUSH2 0x629 DUP7 PUSH1 0xC0 DUP8 ADD PUSH2 0x5C2 JUMP JUMPDEST SWAP2 POP PUSH2 0x639 DUP7 PUSH2 0x100 DUP8 ADD PUSH2 0x5D9 JUMP JUMPDEST SWAP1 POP SWAP3 SWAP6 SWAP2 SWAP5 POP SWAP3 POP JUMP INVALID LOG2 PUSH5 0x6970667358 0x22 SLT KECCAK256 PUSH31 0x594CCD03C6A9EF8833CCEF07B8181A8DAC08E32BBD9809C0B2FBC665B5ECC9 PUSH5 0x736F6C6343 STOP ADDMOD XOR STOP CALLER "},"methodIdentifiers":{"verifyProof(uint256[2],uint256[2][2],uint256[2],uint256[4])":"5fe8c13b"}}}}}